:100000000C942A000C9434000C9434000C943400AA
:100010000C9434000C9434000C9434000C94340090
:100020000C9434000C9434000C9434000C94340080
:100030000C9434000C9434000C9434000C94340070
:100040000C9434000C9434000C9434000C94340060
:100050000C94340011241FBECFE5D8E0DEBFCDBF25
:100060000E9436000C9446000C9400008FEF81BB78
:100070003FEF21E040E132BB2EBD8CB59DB5893B01
:100080009B4010F042BBF7CF12BAF5CFF894FFCFE8
:00000001FF
