:100000000C942A000C943C000C943C000C943C0092
:100010000C943C000C943C000C943C000C943C0070
:100020000C943C000C943C000C943C000C943C0060
:100030000C943C000C943C000C943C000C943C0050
:100040000C943C000C943C000C943C000C943C0040
:100050000C943C0011241FBECFE5D8E0DEBFCDBF1D
:1000600020E0A0E6B0E001C01D92AA36B207E1F799
:100070000E943E000C9453010C9400008FEF8ABB49
:1000800011BA91E080E050E040E0C0EA10E3D0E92E
:1000900020B3792F682F322F347022FF02C0752FC2
:1000A000642F709368006093690020B3792F682FE4
:1000B000E22FE87023FF02C0752F642F7093660053
:1000C0006093670020B3792F682FF22FF07124FF1F
:1000D00002C0752F642F709362006093630020B399
:1000E000792F682FA22FA07225FF02C0752F642FD1
:1000F000709360006093610020B3792F682FB22F56
:10010000B07426FF02C0752F642F70936400609353
:100110006500332369F0EE2329F0F11114C0A11119
:1001200005C0AEC0F1110FC0A1110DC0B1110AC0C0
:10013000311109C0E11107C0F11105C0A11103C0BF
:10014000B11101C0CBBB2091680030916900213012
:100150003105F1F4209166003091670021303105BE
:1001600009F096CF20916200309163002230310572
:1001700008F08ECF2091600030916100232B09F0B0
:1001800087CF2091640030916500232B91F180CFBF
:10019000232B09F07DCF209166003091670021303C
:1001A0003105A1F5209162003091630021303105C5
:1001B00009F069C020916000309161002130310563
:1001C00009F061C020916400309165002130310553
:1001D00009F059C00EC02091600030916100232BBE
:1001E00009F059C02091640030916500232B09F07B
:1001F00052C01BBA20E12A95F1F700C0DBBB209169
:10020000680030916900232B09F042CF20916600ED
:1002100030916700232B09F03BCF20916200309191
:1002200063002230310570F420916000309161004C
:100230002130310539F4209164003091650021307E
:100240003105B9F020916200309163002130310511
:1002500009F01ECF209160003091610021303105FE
:1002600009F016CF2091640030916500232B09F02E
:100270000FCF1BBA20E12A95F1F700C01BBB08CFB6
:10028000E11161CF53CF20916200309163002130A2
:10029000310509F4A0CF2091660030916700232B2F
:0A02A00009F0F6CECFCFF894FFCF9F
:00000001FF
