:100000000C942A000C9434000C9434000C943400AA
:100010000C9434000C9434000C9434000C94340090
:100020000C9434000C9434000C9434000C94340080
:100030000C9434000C9434000C9434000C94340070
:100040000C9434000C9434000C9434000C94340060
:100050000C94340011241FBECFE5D8E0DEBFCDBF25
:100060000E94BB010C94FF020C940000DA98D9980E
:1000700008958BB386608BBB0895DA98D99A08955A
:10008000DA9AD9980895CF92DF92EF92FF920F9368
:100090001F93CB999CC099B393FB992790F981E06A
:1000A000982741E050E060E070E021E0E0E011C01E
:1000B00089B3922F382F387083FD9E2F4F5F5F4F8B
:1000C0006F4F7F4F413281EA580787E0680771051B
:1000D00069F1913069F374C089B383FB882780F993
:1000E0008927B901A8014F5F5F4F6F4F7F4F0032E3
:1000F000114A2740310539F08A019B0101C091E086
:10010000882351F302C08A019B01813009F042C06B
:1001100089B383FB992790F981E08927003291EA1E
:10012000190797E02907310551F538C0311169C029
:1001300062C089B383FB992790F981E089278A01FE
:100140009B010F5F1F4F2F4F3F4F4032514A674077
:100150007105A9F6DACF89B383FB882780F989274F
:1001600068017901C40ED51EE61EF71EE0E2CE1628
:10017000E1EADE06E7E0EE06F10429F412C040E011
:1001800050E0BA0191E04F5F5F4F6F4F7F4F81307A
:1001900011F307C040E050E0BA0103C040E050E076
:1001A000BA01CB01BA01689413F8969587957795B3
:1001B00067951694D1F70E9499020E946A022CC09A
:1001C000992309F4B6CF40E050E0BA01EACF89B3F1
:1001D00083FB992790F981E0892701E010E020E076
:1001E00030E08DCF89B383FB992790F981E089278F
:1001F0008A019B01C4CF3323A9F340E050E0BA0148
:10020000D0CF89B383FB992790F981E0892702E257
:1002100011EA27E030E073CF1F910F91FF90EF902C
:10022000DF90CF900895CF92DF92EF92FF920E94DD
:10023000360089EF90E00197F1F700C000000E94BE
:1002400043006B017C0189EF90E00197F1F700C05A
:1002500000000E944300C60ED71E89EF90E0019770
:10026000F1F700C000000E944300C601860F971FEF
:10027000FF90EF90DF90CF900895CF92DF92EF92B2
:10028000FF920E94390089EF90E00197F1F700C0DA
:1002900000000E9443006B017C0189EF90E0019710
:1002A000F1F700C000000E944300C60ED71E89EF80
:1002B00090E00197F1F700C000000E944300C601E2
:1002C000860F971FFF90EF90DF90CF900895CF9209
:1002D000DF92EF92FF920E943D0089EF90E001973C
:1002E000F1F700C000000E9443006B017C0189EF20
:1002F00090E00197F1F700C000000E944300C60E95
:10030000D71E89EF90E00197F1F700C000000E942E
:100310004300C601860F971FFF90EF90DF90CF90AC
:100320000895CF92DF92EF92FF920E94400089EFF2
:1003300090E00197F1F700C000000E9443006B01BC
:100340007C0189EF90E00197F1F700C000000E9466
:100350004300C60ED71E89EF90E00197F1F700C069
:1003600000000E944300C601860F971FFF90EF9088
:10037000DF90CF9008958FEF81BB97EF9ABB87BB3B
:1003800080E18BBB8FB5826F8FBD8EB589618EBDCD
:100390008FE19EE497BD86BD0F2EF6EE4F2EF6E45C
:1003A0005F2EF02D0F2EFCE9AF2EFAE4BF2EF02DBC
:1003B0000F2EF8E8CF2EF5E4DF2EF02D0F2EFCE007
:1003C0006F2EF9E47F2EF02D6894222422F80F2E50
:1003D000812CFBE49F2EF02D6894332433F82FE713
:1003E0008AE196E0215080409040E1F700C0000093
:1003F0000E941301EC010E943D018C010E946701E3
:100400007C010E949101CE15DF0534F4CE010C175A
:100410001D073CF4C80105C0C801E016F1060CF444
:10042000C70180179107D1F499BC88BC2FE38DE0F8
:1004300093E0215080409040E1F700C00000BBBC39
:10044000AABC38BA2FE38DE093E021508040904061
:10045000E1F700C00000DBBCCABCC1CF8C179D0710
:10046000D1F479BC68BC2FE38DE093E0215080404B
:100470009040E1F700C00000BBBCAABC28BA2FE343
:100480008DE093E0215080409040E1F700C00000F3
:10049000DBBCCABCA4CF8E159F0509F0A0CF59BC08
:1004A00048BC2FE38DE093E0215080409040E1F77D
:1004B00000C00000BBBCAABC20E128BB8FE39DE0CC
:1004C00023E0815090402040E1F700C00000DBBCF9
:1004D000CABC85CF0E94DE0288F09F5798F0B92FE2
:1004E0009927B751B0F0E1F0660F771F881F991F69
:1004F0001AF0BA95C9F714C0B13091F00E94F80211
:10050000B1E008950C94F802672F782F8827B85F20
:1005100039F0B93FCCF3869577956795B395D9F7C0
:100520003EF490958095709561957F4F8F4F9F4FCA
:100530000895E89409C097FB3EF4909580957095D6
:1005400061957F4F8F4F9F4F9923A9F0F92F96E91F
:10055000BB279395F695879577956795B795F11194
:10056000F8CFFAF4BB0F11F460FF1BC06F5F7F4F31
:100570008F4F9F4F16C0882311F096E911C0772343
:1005800021F09EE8872F762F05C0662371F096E84C
:10059000862F70E060E02AF09A95660F771F881F1B
:1005A000DAF7880F9695879597F9089557FD905833
:1005B000440F551F59F05F3F71F04795880F97FB27
:1005C000991F61F09F3F79F08795089512161306E1
:1005D0001406551FF2CF4695F1DF08C01616170610
:1005E0001806991FF1CF8695710561050894089545
:1005F000E894BB2766277727CB0197F90895F894ED
:02060000FFCF2A
:00000001FF
