:100000000C942A000C943C000C943C000C943C0092
:100010000C943C000C943C000C943C000C943C0070
:100020000C943C000C943C000C943C000C943C0060
:100030000C943C000C943C000C943C000C943C0050
:100040000C943C000C943C000C943C000C943C0040
:100050000C943C0011241FBECFE5D8E0DEBFCDBF1D
:1000600020E0A0E6B0E001C01D92AC36B207E1F797
:100070000E9471000C94B4010C94000090B396950A
:100080009695969581E09827917090936A001092CA
:100090006B0090B392959F70982791709093680031
:1000A0001092690090B392959695977098279170E9
:1000B000909364001092650090B39695969598275A
:1000C0009170909362001092630090B39295969510
:1000D00096959370892781708093660010926700CF
:1000E00008958FEF8ABB11BA0F2EF0E6FF2EF02D88
:1000F00010EA00E9D0E2C0E81092670010926600B2
:1001000010926300109262001092650010926400D9
:10011000109269001092680010926B0010926A00B1
:100120000E943E0080916A0090916B00892B09F03B
:10013000FEC08091680090916900019709F5809157
:10014000640090916500892BD9F41BBB80916A00F3
:1001500090916B00019769F480916800909169001B
:10016000892B09F58091640090916500892BD9F461
:10017000CBBB80916A0090916B00009709F0CBC0D7
:100180008091680090916900892B11F5809164003D
:10019000909165000197E1F4DBBB80916A0090913A
:1001A0006B00019771F4809168009091690001974C
:1001B000E1F48091640090916500892B09F0CBC037
:1001C000CBBB80916A0090916B00892B09F0BBC07A
:1001D0008091680090916900019799F58091640081
:1001E00090916500019769F5DBBB80916A00909161
:1001F0006B008130910509F091C080916800909169
:100200006900019709F069C08091640090916500D0
:10021000019709F062C08091620090916300892B80
:1002200009F05BC08091660090916700892B09F00E
:1002300054C00BBB80916A0090916B00892B09F030
:1002400045C08091680090916900892B09F054CFD6
:100250008091640090916500019709F04DCF8091E5
:10026000620090916300019709F046CF809166008B
:1002700090916700019709F03FCF809160009091C5
:100280006100892B09F038CFFBBA0E943E008091B3
:100290006A0090916B00892BC1F780916800909162
:1002A0006900892B91F78091640090916500019716
:1002B00061F78091620090916300892B31F7809102
:1002C000660090916700892B01F71BBB80916A0043
:1002D00090916B00019709F00FCF80916800909189
:1002E0006900019709F008CF809164009091650042
:1002F000019709F001CF809162009091630001970E
:1003000009F0FACE8091660090916700019709F09C
:10031000F3CE1BBAF1CE019789F445CF892B09F4AE
:1003200090CFEACE80916A0090916B00F4CF8091DB
:100330006A0090916B000197A9F70ECF80916A0037
:1003400090916B00EBCF80916A0090916B000197C8
:1003500009F453CFD1CE80916A0090916B00813027
:0C036000910509F451CFDACFF894FFCFDB
:00000001FF
