S0240000616476616E6365645F6C696E655F666F6C6C6F7765725F626C61636B2E737265639E
S11300000C942A000C943C000C943C000C943C008E
S11300100C943C000C943C000C943C000C943C006C
S11300200C943C000C943C000C943C000C943C005C
S11300300C943C000C943C000C943C000C943C004C
S11300400C943C000C943C000C943C000C943C003C
S11300500C943C0011241FBECFE5D8E0DEBFCDBF19
S113006020E0A0E6B0E001C01D92AC36B207E1F793
S11300700E9458020C947C020C9400008BB3807F85
S11300808BBB8BB385608BBB08958BB3807F8BBB9D
S1130090D89A08958BB3807F8BBBDA9A08958BB37B
S11300A0807F8BBB08950E943E002FE58AEE90E08E
S11300B0215080409040E1F700C000000E944F00B2
S11300C08BB3807F8BBB8BB389608BBB2FED88E2B6
S11300D091E0215080409040E1F700C000000E9470
S11300E0450087EA91E60197F1F700C00000819B83
S11300F0FECF0E944F00809168009091690081308A
S1130100910539F484E090E090936900809368004D
S113011008958430910539F482E090E09093690069
S11301208093680008958230910539F483E090E06B
S113013090936900809368000895039731F481E0F7
S113014090E0909369008093680008950E943E00B7
S11301502FE58AEE90E0215080409040E1F700C006
S113016000008BB3807F8BBB8BB386608BBB2FED82
S113017088E291E0215080409040E1F700C0000007
S11301800E944A0087EA91E60197F1F700C0000057
S113019080B38570E9F30E944F00809168009091CC
S11301A069008130910539F483E090E0909369000F
S11301B08093680008958330910539F482E090E0DB
S11301C0909369008093680008958230910539F412
S11301D084E090E090936900809368000895049708
S11301E031F481E090E09093690080936800089571
S11301F080B380B30E943E0080B382990E94450080
S113020080B3837019F080B30E944A0008950E945D
S11302103E008BE594E40197F1F700C000000FC0A5
S11302200E94F80080B3867051F081E090E09093D2
S11302306100809360000E944F0081E008958199DD
S1130240EFCF80B3857061F70E943E008BE594E4A4
S11302500197F1F700C0000080B380B3857081304E
S1130260D9F70E944F008091680090916900813015
S1130270910559F420916600309167002F5F3F4F3C
S113028030936700209366001CC08230910559F4B6
S11302908091660090916700019790936700809326
S11302A0660080E008958330910559F480916A00D6
S11302B090916B00019690936B0080936A0080E0AC
S11302C00895049759F480916A0090916B00019706
S11302D090936B0080936A0080E0089580E0089515
S11302E0109267001092660010926B0010926A00E0
S11302F004C00E940701811142C080916600909160
S113030067002091620030916300821793078CF399
S113031040916A0050916B00209164003091650017
S11303204217530711F4892B51F10E94A6000E9431
S11303300701811124C00E94A60004C00E94070185
S113034081111DC0809166009091670018161906EE
S1130350ACF340916A0050916B002091640030919D
S113036065004217530711F4892B49F00E9453008A
S11303700E940701811103C00E945300BECF08955B
S11303808BB3807F8BBB8BB386608BBB2FE18FEBF2
S113039092E0215080409040E1F700C000000E94AC
S11303A04A0087EA91E60197F1F700C0000080B3A4
S11303B08570E9F30E944F00809168009091690074
S11303C08130910539F482E090E090936900809344
S11303D0680008958330910539F484E090E09093A7
S11303E069008093680008958230910539F481E0B2
S11303F090E090936900809368000895049731F425
S113040083E090E0909369008093680008950E94CF
S113041007018091660090916700019790936700AF
S11304208093660080916A0090916B00892BA9F1FA
S11304300E94530080916A0090916B00892B69F1AE
S11304400E94070180916A0090916B00892BC1F78B
S113045024C00E94C0018091660090916700892B9E
S113046021F10E9407018091660090916700892B19
S1130470C1F71BC00497C9F40E9453008091660021
S113048090916700892B89F00E9407018091660092
S113049090916700892BC1F708C080916800909102
S11304A069008130910531F7D4CF80E090E0089560
S11304B017BA8FEF8ABB11BA83E090E0909365007E
S11304C080936400909363008093620081E090E0E5
S11304D090936900809368002FE38DE093E02150AE
S11304E080409040E1F700C000000E9470010E942B
S10F04F0C0010E940702FFCFF894FFCF68
S9030000FC
