:100000000C942A000C9434000C9434000C943400AA
:100010000C9434000C9434000C9434000C94340090
:100020000C9434000C9434000C9434000C94340080
:100030000C9434000C9434000C9434000C94340070
:100040000C9434000C9434000C9434000C94340060
:100050000C94340011241FBECFE5D8E0DEBFCDBF25
:100060000E9436000C9462000C9400008FB58A69DF
:100070008FBD8EB581608EBD8FE19EE497BD86BD3C
:1000800081B3806381BB48EE53E020ED37E08EE51D
:1000900091E05BBD4ABDE3EDF0E33197F1F700C0BD
:1000A00000003BBD2ABDE3EDF0E33197F1F700C05E
:1000B00000009BBD8ABDE3EDF0E33197F1F700C08E
:0800C0000000E7CFF894FFCF28
:00000001FF
