:100000000C942A000C943C000C943C000C943C0092
:100010000C943C000C943C000C943C000C943C0070
:100020000C943C000C943C000C943C000C943C0060
:100030000C943C000C943C000C943C000C943C0050
:100040000C943C000C943C000C943C000C943C0040
:100050000C943C0011241FBECFE5D8E0DEBFCDBF1D
:1000600020E0A0E6B0E001C01D92AC36B207E1F797
:100070000E9471000C94E4010C94000090B39695DA
:100080009695969581E09827917090936A001092CA
:100090006B0090B392959F70982791709093680031
:1000A0001092690090B392959695977098279170E9
:1000B000909364001092650090B39695969598275A
:1000C0009170909362001092630090B39295969510
:1000D00096959370892781708093660010926700CF
:1000E00008958FEF8ABB11BA10EAD0E2C0E81092EF
:1000F00067001092660010926300109262001092E6
:1001000065001092640010926900109268001092CD
:100110006B0010926A000E943E0080916A009091EC
:100120006B00892B09F031C18091680090916900C2
:10013000019709F58091640090916500892BD9F4AD
:100140001BBB80916A0090916B00019769F48091CC
:10015000680090916900892B19F580916400909155
:100160006500892BE9F4CBBB80916A0090916B000C
:10017000009709F001C18091680090916900892B76
:1001800019F580916400909165000197E9F4DBBB5B
:1001900080916A0090916B00019709F005C1FCC045
:1001A00080916800909169000197E9F48091640062
:1001B00090916500892B09F0FFC0CBBB80916A004C
:1001C00090916B00892B79F480916800909169007F
:1001D000019709F08CCF80916400909165000197A0
:1001E00009F085CFDBBB80916A0090916B0001978D
:1001F00009F07DCF8091680090916900019709F026
:1002000076CF80916400909165000197D9F4809138
:10021000620090916300892BA9F48091660090910F
:100220006700892B79F41BBB80916A0090916B0069
:10023000019709F05CCF8091680090916900019767
:1002400009F055CF8091640090916500019709F005
:100250004ECF8091620090916300019709F047CFE3
:100260008091660090916700019709F040CF1BBA1A
:100270002FEB87E299E0215080409040E1F700C0E9
:100280000000809160009091610001969093610060
:1002900080936000C0EA80916000909161000197B6
:1002A00009F4CBBB0E943E0080916A0090916B00E4
:1002B000892BC9F58091680090916900892B09F01C
:1002C00051C08091640090916500892BC9F48091A0
:1002D000620090916300892B99F48091660090915F
:1002E0006700892B69F4CBBB80916A0090916B0009
:1002F000892BC9F48091680090916900892B91F550
:100300008091640090916500019761F58091620091
:1003100090916300892B31F5809166009091670080
:10032000892B01F5CBBB80916A0090916B000197FE
:10033000C9F48091680090916900019799F48091C7
:10034000640090916500019769F48091620090913A
:100350006300019739F480916600909167000197DE
:1003600009F41BBA8091600090916100019690930E
:100370006100809360008FCF019709F0B8CE10CF55
:1003800080916A0090916B00F7CF80916A00909104
:100390006B000197A9F7DBCE80916800909169000E
:1003A000019709F027CF02CF80916A0090916B00EE
:1003B000892B09F09CCE08CF80916A0090916B0048
:0C03C000019709F41ECF93CEF894FFCFF4
:00000001FF
