:100000000C942A000C943C000C943C000C943C0092
:100010000C943C000C943C000C943C000C943C0070
:100020000C943C000C943C000C943C000C943C0060
:100030000C943C000C943C000C943C000C943C0050
:100040000C943C000C943C000C943C000C943C0040
:100050000C943C0011241FBECFE5D8E0DEBFCDBF1D
:1000600020E0A0E6B0E001C01D92AA36B207E1F799
:100070000E943E000C94A2010C9400008FEF8ABBFA
:1000800011BA91E080E040E030E0A0EAF0E2D0E692
:10009000B0E80F2EF0E9FF2EF02D20B3692F582F76
:1000A000722F747022FF02C0642F532F6093680078
:1000B0005093690020B3692F582FE22FE87023FF77
:1000C00002C0642F532F609366005093670020B3E3
:1000D000692F582F122F107124FF02C0642F532F45
:1000E000609362005093630020B3692F582F022F52
:1000F000007225FF02C0642F532F6093600050935D
:10010000610020B3692F582FC22FC07426FF02C090
:10011000642F532F6093640050936500772341F060
:10012000EE2331F0111104C0002311F0C111ABBB5B
:10013000609168007091690061307105F9F4609117
:100140006600709167006130710509F080C06091B0
:100150006200709163006130710509F078C06091B0
:10016000600070916100672B09F071C060916400BC
:1001700070916500672B09F06AC0FBBA6091680056
:1001800070916900672B09F086C0609166007091DC
:10019000670061307105D9F460916200709163006D
:1001A00061307105C1F56091600070916100672B4D
:1001B00091F56091640070916500672B61F5BBBBA0
:1001C0006091680070916900672B09F088C06091A8
:1001D000660070916700672B09F040C06091620073
:1001E0007091630061307105E9F460916000709175
:1001F000610061307105B1F4609164007091650037
:100200006130710579F4DBBB609168007091690021
:10021000672B09F064C06091660070916700672BDE
:1002200009F087C0609162007091630061307105D0
:10023000C1F560916000709161006130710589F5D0
:100240006091640070916500672B59F5FBBB60916C
:10025000680070916900672B09F041C060916600E9
:100260007091670061307105E1F4609162007091F6
:100270006300672B09F011CF6091600070916100FD
:10028000672B09F00ACF6091640070916500672BBD
:1002900009F003CFFBBB6091680070916900672B88
:1002A000F1F46091660070916700672B09F0F5CE5C
:1002B0006091620070916300672B09F0EECE60914F
:1002C0006000709161006130710509F0E6CE6091C7
:1002D000640070916500672B09F0DFCEFBBB609175
:1002E0006800709169006130710509F0D6CE6091A7
:1002F0006600709167006130710509F0CECE6091A3
:100300006200709163006130710509F0C6CE6091A2
:100310006000709161006130710509F0BECE60919E
:100320006400709165006130710509F0B6CE2BB3A1
:10033000B4CE60916600709167006130710509F478
:0803400094CFABCEF894FFCF7F
:00000001FF
