S01400006C696E65666F6C6C6F7765722E73726563FE
S11300000C942A000C943C000C943C000C943C008E
S11300100C943C000C943C000C943C000C943C006C
S11300200C943C000C943C000C943C000C943C005C
S11300300C943C000C943C000C943C000C943C004C
S11300400C943C000C943C000C943C000C943C003C
S11300500C943C0011241FBECFE5D8E0DEBFCDBF19
S113006020E0A0E6B0E001C01D92AA36B207E1F795
S11300700E943E000C94EE000C9400008FEF8ABBAB
S113008011BA91E080E070E060E0C0EAB0E2A0E87C
S113009020B3492F382F522F587023FF02C0472F07
S11300A0362F409368003093690020B3492F382FCE
S11300B0E22FE07124FF02C0472F362F40936600E1
S11300C03093670020B3492F382FF22FF07225FFA9
S11300D002C0472F362F40936200309363005523AC
S11300E021F0E11102C0F111CBBB209168003091E5
S11300F069002130310569F4209166003091670070
S1130100232B19F52091620030916300232BE9F42D
S1130110ABBB2091680030916900232B09F055C0D6
S11301202091660030916700232BB1F52091620085
S1130130309163002130310579F5BBBB2091680013
S1130140309169002130310539F5209166003091F4
S113015067002130310509F09BCF20916200309176
S113016063002130310581F4CBBB209168003091CC
S113017069002130310581F42091660030916700D7
S11301802130310509F084CF209162003091630061
S1130190232B09F07DCFABBB20916800309169001F
S11301A0232B09F075CF2091660030916700213030
S11301B0310509F06DCF2091620030916300213048
S11301C0310509F065CFBBBB63CF20916800309146
S11301D069002130310509F05BCFB7CFF894FFCF28
S9030000FC
