S01700004763634170706C69636174696F6E352E7372656357
S11300000C942A000C9434000C9434000C943400A6
S11300100C9434000C9434000C9434000C9434008C
S11300200C9434000C9434000C9434000C9434007C
S11300300C9434000C9434000C9434000C9434006C
S11300400C9434000C9434000C9434000C9434005C
S11300500C94340011241FBECFE5D8E0DEBFCDBF21
S11300600E9436000C9450000C94000087EC8ABB6C
S113007011BA50EA80B3887090E040B320B3207284
S113008030E044FD0AC0892BA9F3232B99F35BBB11
S1130090F1CF232B79F31BBAEDCF892BD1F7EACF1C
S10700A0F894FFCFFE
S9030000FC
