:100000000C942A000C943C000C943C000C943C0092
:100010000C943C000C943C000C943C000C943C0070
:100020000C943C000C943C000C943C000C943C0060
:100030000C943C000C943C000C943C000C943C0050
:100040000C943C000C943C000C943C000C943C0040
:100050000C943C0011241FBECFE5D8E0DEBFCDBF1D
:1000600020E0A0E6B0E001C01D92AA36B207E1F799
:100070000E943E000C94B3010C9400008FEF8ABBE9
:1000800011BA91E080E040E030E0C0EA10E6A0E282
:100090000F2EF0E9FF2EF02DB0E820B3692F582F76
:1000A000722F747022FF02C0642F532F6093680078
:1000B0005093690020B3692F582FE22FE87023FF77
:1000C00002C0642F532F609366005093670020B3E3
:1000D000692F582FF22FF07124FF02C0642F532F85
:1000E000609362005093630020B3692F582F022F52
:1000F000007225FF02C0642F532F6093600050935D
:10010000610020B3692F582FD22FD07426FF02C070
:10011000642F532F6093640050936500772391F010
:10012000EE2329F0F111EBC001110AC0EBC0F1116F
:1001300003C0011107C004C0FF2321F0011102C058
:10014000D111CBBB60916800709169006115710598
:1001500089F460916600709167006130710509F063
:100160004FC060916200709163006230710508F4C5
:10017000B8C046C06130710509F042C060916600A8
:10018000709167006130710541F460916200709177
:100190006300672B09F4ACC0B8C0672B09F0C6C078
:1001A0006091620070916300672B09F4A1C070C078
:1001B0006091640070916500672B09F4BBBB60918E
:1001C0006800709169006130710509F4AFC018C012
:1001D00060916200709163006130710509F0BBC0ED
:1001E00060916000709161006230710508F0B3C0E9
:1001F0006091640070916500672B09F0ACC0FBBA98
:100200006091680070916900672B09F046CF60919A
:100210006600709167006115710509F098C06091E2
:100220006200709163006230710508F088C06091CF
:100230006000709161006130710509F080C06091CB
:10024000640070916500672B11F179C060916000C6
:10025000709161006130710539F4609164007091B2
:1002600065006130710599F06091620070916300E2
:10027000672BE9F46091600070916100672BB9F41D
:1002800060916400709165006130710581F4ABBBD1
:100290006091680070916900672B09F0FECE609153
:1002A0006600709167006230710508F0F6CE6091CB
:1002B0006200709163006130710509F0EECE6091CB
:1002C0006000709161006130710509F0E6CE6091C7
:1002D0006400709165006130710509F0DECE1BBBD2
:1002E000DCCE6091600070916100672BB9F08FCF18
:1002F0006091600070916100672BC1F459CFE111EA
:1003000021CF1ACFE1111ECF1BCF609166007091F3
:1003100067006130710509F0BBCF5ACF609164006E
:1003200070916500672B09F449CF6ACF6091660030
:10033000709167006130710509F0AFCE49CF6091CF
:10034000620070916300672B09F480CF8DCF672B1B
:1003500009F0A5CF89CF6091680070916900672B83
:0A03600009F09BCEA4CFF894FFCF64
:00000001FF
