S01700004763634170706C69636174696F6E312E737265635B
S11300000C942A000C9447000C9447000C9447006D
S11300100C9447000C9447000C9447000C94470040
S11300200C9447000C9447000C9447000C94470030
S11300300C9447000C9447000C9447000C94470020
S11300400C9447000C9447000C9447000C94470010
S11300500C94470011241FBECFE5D8E0DEBFCDBF0E
S113006010E0A0E6B0E0E2EDF2E002C005900D92EF
S1130070A036B107D9F720E0A0E6B0E001C01D9298
S1130080A237B207E1F70E94DE000C9467010C94DA
S11300900000019761F56130710561F481E090E041
S11300A0909367008093660010926500109264003C
S11300B0DF9A08956230710559F410926700109226
S11300C0660010926500109264008BB38BBB089598
S11300D063307105B9F5109267001092660081E0F3
S11300E090E09093650080936400DE9A08956130F7
S11300F0710561F481E090E0909363008093620065
S11301001092610010926000DD9A089562307105CA
S113011059F41092630010926200109261001092E0
S113012060008BB38BBB08956330710559F4109252
S113013063001092620081E090E0909361008093EC
S11301406000DC9A08950F931F930097D1F0611516
S11301507105D1F041305105D1F021153105D1F0AF
S113016001151105D1F00197D9F061307105D9F06D
S113017021303105D9F001301105D9F08AE090E041
S11301801AC080E090E017C080E090E014C080E0E6
S113019090E011C080E090E00EC080E090E00BC0E1
S11301A081E090E008C081E090E005C082E090E04A
S11301B002C082E090E01F910F91089580EF8ABB06
S11301C08CE781BB80B3847090E09093710080933E
S11301D0700060B3687070E070936F0060936E009D
S11301E040B3407150E050936B0040936A0020B3D9
S11301F0207230E0309369002093680000B30074EB
S113020010E010936D0000936C000E94A3008C0119
S1130210009769F461E070E081E090E00E94490099
S113022061E070E080E090E00E9449001FC08130EE
S1130230910569F463E070E081E090E00E94490078
S113024061E070E080E090E00E9449001FC00297E6
S113025069F461E070E081E090E00E94490063E0AD
S113026070E080E090E00E94490020C00330110556
S113027069F462E070E081E090E00E94490061E08E
S113028070E080E090E00E9449009CCF04301105AA
S113029069F461E070E081E090E00E94490062E06E
S11302A070E080E090E00E9449008CCF0530110599
S11302B009F088CF62E070E081E090E00E9449009C
S11302C062E070E080E090E00E9449007BCFF89407
S10502D0FFCF5A
S9030000FC
