:100000000C942A000C9434000C9434000C943400AA
:100010000C9434000C9434000C9434000C94340090
:100020000C9434000C9434000C9434000C94340080
:100030000C9434000C9434000C9434000C94340070
:100040000C9434000C9434000C9434000C94340060
:100050000C94340011241FBECFE5D8E0DEBFCDBF25
:100060000E948E010C9457020C940000DA98D998E3
:1000700008958BB386608BBB0895DA98D99A08955A
:10008000CF92DF92EF92FF920F931F93CB999CC078
:1000900099B393FB992790F981E0982741E050E0CC
:1000A00060E070E021E0E0E011C089B3922F382FCA
:1000B000387083FD9E2F4F5F5F4F6F4F7F4F4132F0
:1000C00081EA580787E06807710569F1913069F3A3
:1000D00074C089B383FB882780F98927B901A801F7
:1000E0004F5F5F4F6F4F7F4F0032114A27403105FE
:1000F00039F08A019B0101C091E0882351F302C0CD
:100100008A019B01813009F042C089B383FB9927A2
:1001100090F981E08927003291EA190797E02907D1
:10012000310551F538C0311169C062C089B383FB14
:10013000992790F981E089278A019B010F5F1F4F62
:100140002F4F3F4F4032514A67407105A9F6DACF31
:1001500089B383FB882780F9892768017901C40E58
:10016000D51EE61EF71EE0E2CE16E1EADE06E7E067
:10017000EE06F10429F412C040E050E0BA0191E02B
:100180004F5F5F4F6F4F7F4F813011F307C040E0EB
:1001900050E0BA0103C040E050E0BA01CB01BA011F
:1001A000689413F896958795779567951694D1F787
:1001B0000E94F1010E94C2012CC0992309F4B6CF1C
:1001C00040E050E0BA01EACF89B383FB992790F968
:1001D00081E0892701E010E020E030E08DCF89B395
:1001E00083FB992790F981E089278A019B01C4CF7D
:1001F0003323A9F340E050E0BA01D0CF89B383FBA9
:10020000992790F981E0892702E211EA27E030E09E
:1002100073CF1F910F91FF90EF90DF90CF900895D3
:10022000CF92DF92EF92FF920E94360089EF90E02A
:100230000197F1F700C000000E9440006B017C01B3
:1002400089EF90E00197F1F700C000000E944000A4
:10025000C60ED71E89EF90E00197F1F700C00000AD
:100260000E944000C601860F971FFF90EF90DF901D
:10027000CF900895CF92DF92EF92FF920E943900C3
:1002800089EF90E00197F1F700C000000E94400064
:100290006B017C0189EF90E00197F1F700C000004D
:1002A0000E944000C60ED71E89EF90E00197F1F73B
:1002B00000C000000E944000C601860F971FFF90FB
:1002C000EF90DF90CF900895CF92DF92EF92FF9260
:1002D0000E943D0089EF90E00197F1F700C0000017
:1002E0000E9440006B017C0189EF90E00197F1F7DB
:1002F00000C000000E944000C60ED71E89EF90E0AB
:100300000197F1F700C000000E944000C601860F6F
:10031000971FFF90EF90DF90CF90089587EF8ABBF3
:100320008FEF87BB80E18BBB6894DD24D4F86894A1
:10033000EE24E2F86894FF24F3F80E9410018C0187
:100340000E943A01EC010E9464010817190734F475
:100350009801C017D1073CF49E0105C09E018C177F
:100360009D070CF49C012C173D0711F4F8BAE5CF5A
:100370002017310711F4E8BAE0CF28173907E9F65A
:10038000D8BADBCF0E94360288F09F5798F0B92F79
:100390009927B751B0F0E1F0660F771F881F991FBA
:1003A0001AF0BA95C9F714C0B13091F00E9450020A
:1003B000B1E008950C945002672F782F8827B85F1A
:1003C00039F0B93FCCF3869577956795B395D9F712
:1003D0003EF490958095709561957F4F8F4F9F4F1C
:1003E0000895E89409C097FB3EF490958095709528
:1003F00061957F4F8F4F9F4F9923A9F0F92F96E971
:10040000BB279395F695879577956795B795F111E5
:10041000F8CFFAF4BB0F11F460FF1BC06F5F7F4F82
:100420008F4F9F4F16C0882311F096E911C0772394
:1004300021F09EE8872F762F05C0662371F096E89D
:10044000862F70E060E02AF09A95660F771F881F6C
:10045000DAF7880F9695879597F9089557FD905884
:10046000440F551F59F05F3F71F04795880F97FB78
:10047000991F61F09F3F79F0879508951216130632
:100480001406551FF2CF4695F1DF08C01616170661
:100490001806991FF1CF8695710561050894089596
:1004A000E894BB2766277727CB0197F90895F8943E
:0204B000FFCF7C
:00000001FF
