:100000000C942A000C9434000C9434000C943400AA
:100010000C9434000C9434000C9434000C94340090
:100020000C9434000C9434000C9434000C94340080
:100030000C9434000C9434000C9434000C94340070
:100040000C9434000C9434000C9434000C94340060
:100050000C94340011241FBECFE5D8E0DEBFCDBF25
:100060000E9443000C945C000C94000083E389B967
:100070008AB188618AB980B5866880BD08955D9B24
:10008000FECF8CB90895CF93DF93CDB7DEB7289715
:100090000FB6F894DEBF0FBECDBF0E9436008E01B2
:1000A0000F5F1F4F802F0E943F0087EA91E6019764
:0C00B000F1F700C00000F6CFF894FFCF7D
:00000001FF
