S01800006C696E65626C61636B6174656D7074322E73726563AA
S11300000C942A000C943C000C943C000C943C008E
S11300100C943C000C943C000C943C000C943C006C
S11300200C943C000C943C000C943C000C943C005C
S11300300C943C000C943C000C943C000C943C004C
S11300400C943C000C943C000C943C000C943C003C
S11300500C943C0011241FBECFE5D8E0DEBFCDBF19
S113006020E0A0E6B0E001C01D92AA36B207E1F795
S11300700E943E000C94FD010C9400008FEF8ABB9B
S113008011BA91E080E050E040E0B0EA10E5C0E64B
S1130090D0E920B3792F682F322F347022FF02C0A9
S11300A0752F642F709368006093690020B3792FD3
S11300B0682FE22FE87023FF02C0752F642F70931E
S11300C066006093670020B3792F682FF22FF071D8
S11300D024FF02C0752F642F709362006093630045
S11300E020B3792F682FA22FA07225FF02C0752F8D
S11300F0642F709360006093610020B3792F682FA0
S1130100022F007426FF02C0752F642F70936400C1
S11301106093650031110FC0E11105C0FF23A9F000
S1130120A11131C106C0EE2381F0FF2371F0AA238F
S113013061F0002349F0332341F0EE2331F0FF2333
S113014021F0AA2311F00111BBBB2091680030916A
S113015069002230310578F460916600709167007F
S1130160672B49F4609162007091630061307105FE
S113017009F0EFC021C02115310589F420916600F2
S113018030916700232B09F009C101C1209162005D
S1130190309163002130310509F0ADC025C1213013
S11301A0310509F404C12FC020916200309163002D
S11301B0232B09F4D6C027C06091600070916100C0
S11301C061307105C1F0232BF1F4F9C02091660070
S11301D030916700232B09F08EC02091620030918A
S11301E06300232B09F087C02091600030916100E7
S11301F0232B09F080C020916400309165002130E8
S1130200310509F4DBBB209168003091690021308D
S1130210310509F03ECF209166003091670021300E
S1130220310509F0DCC060916200709163006130B7
S1130230710509F0CCC06091600070916100672B7A
S113024009F0C5C060916400709165006230710569
S113025008F0BDC04FC06091600070916100672BD1
S113026039F46091640070916500672B09F442C011
S113027060916200709163006130710521F56091B5
S113028060007091610061307105E9F4609164006F
S113029070916500672B71F116C02115310599F431
S11302A02091620030916300232B69F52091600056
S11302B030916100232B39F5209164003091650061
S11302C0232BC1F020C02130310509F0E2CE20916A
S11302D0620030916300232BF1F42091600030918F
S11302E06100232BC1F4209164003091650021301A
S11302F0310589F4CBBB209168003091690021302D
S1130300310509F0C6CE2091660030916700213096
S1130310310509F0BECE2091620030916300213096
S1130320310509F0B6CE2091600030916100213092
S1130330310509F0AECE2091640030916500213082
S1130340310509F0A6CE25E82A95F1F700001BBB7C
S1130350A0CE21153105D9F02130310509F424CF7F
S1130360CACF20916000309161002130310509F03D
S11303704ACF41CF20916000309161002130310596
S113038009F024CF38CFEE2309F4DFCED0CE20916C
S1130390620030916300232B69F318CF209166002B
S11303A0309167002130310509F0A5CFEFCE2091BF
S11303B0660030916700232B09F4F6CE2CCF2091F0
S11303C0660030916700232B09F407CF62CE609159
S11303D0620070916300672B09F43DCF49CF21304F
S11303E0310509F05ACF44CF20916000309161006B
S11103F02130310509F07FCFFECEF894FFCF07
S9030000FC
