S01900007463735F736572766F5F70726F746575732E73726563C2
S11300000C942A000C9434000C9434000C943400A6
S11300100C9434000C9434000C9434000C9434008C
S11300200C9434000C9434000C9434000C9434007C
S11300300C9434000C9434000C9434000C9434006C
S11300400C9434000C9434000C9434000C9434005C
S11300500C94340011241FBECFE5D8E0DEBFCDBF21
S11300600E94FE000C9442020C940000D898D99A85
S113007008958BB38BBB08958BB383608BBB0895BA
S1130080B49902C0B49BFECF86B31DBC1CBC81E0F6
S11300908EBDB49BFECF2CB53DB51EBC032E000C0B
S11300A0440B550B60E072E18AE790E00E940F0276
S11300B0CA01B9010E9475010E9444010895CF92BA
S11300C0DF92EF92FF920E9436008FE19EE4019747
S11300D0F1F700C000000E9440006B017C018FEC2E
S11300E097E00197F1F700C000000E944000C60E9F
S11300F0D71E0E944000C601860F971F63E070E080
S11301000E94D901CB01FF90EF90DF90CF9008952A
S1130110CF92DF92EF92FF920E943C008FE19EE427
S11301200197F1F700C000000E9440006B017C01C0
S11301308FEC97E00197F1F700C000000E944000A7
S1130140C60ED71E0E944000C601860F971FFF905F
S1130150EF90DF90CF900895CF92DF92EF92FF92CD
S11301600E9439008FE19EE40197F1F700C000007E
S11301700E9440006B017C018FEC97E00197F1F73E
S113018000C000000E944000C60ED71E0E9440001E
S1130190C601860F971FFF90EF90DF90CF900895D0
S11301A02AB128612AB920B5266820BDDC01CB011B
S11301B0880F991FAA1FBB1F880F991FAA1FBB1F57
S11301C09C01AD01220F331F441F551F220F331F03
S11301D0441F551F60E072E18AE790E00E94ED0140
S11301E08FEF820F89B9DA01C9010197A109B10919
S11301F0892F9A2FAB2FBB2780BD08958FB58A69AD
S11302008FBD8EB582608EBD8FE39CE997BD86BDA0
S113021081B3806381BB8FEF8ABB81BB8CE08BBBD6
S113022017BA60E875E280E090E00E94D00068941C
S1130230EE24E6F86894DD24D5F86894FF24F7F8F2
S11302400E94AC00EC010E9488008C010E945F00B7
S1130250C13BD64314F0FBBAF3CF09392AE31207A2
S11302604CF0855C99408B3A9D4010F4EBBAE8CF92
S1130270DBBAE6CF08391A431CF7855C99408B3A00
S11302809D40F0F6EBBADCCF0E94B80188F09F578E
S113029098F0B92F9927B751B0F0E1F0660F771FA6
S11302A0881F991F1AF0BA95C9F714C0B13091F09C
S11302B00E94D201B1E008950C94D201672F782FE7
S11302C08827B85F39F0B93FCCF386957795679561
S11302D0B395D9F73EF490958095709561957F4FCD
S11302E08F4F9F4F0895E89409C097FB3EF4909573
S11302F08095709561957F4F8F4F9F4F9923A9F0FB
S1130300F92F96E9BB279395F69587957795679589
S1130310B795F111F8CFFAF4BB0F11F460FF1BC0CD
S11303206F5F7F4F8F4F9F4F16C0882311F096E960
S113033011C0772321F09EE8872F762F05C066230E
S113034071F096E8862F70E060E02AF09A95660FC7
S1130350771F881FDAF7880F9695879597F9089580
S113036057FD9058440F551F59F05F3F71F0479562
S1130370880F97FB991F61F09F3F79F08795089547
S1130380121613061406551FF2CF4695F1DF08C066
S1130390161617061806991FF1CF86957105610583
S11303A008940895E894BB2766277727CB0197F92B
S11303B0089597FB072E16F4009407D077FD09D013
S11303C00E942E0207FC05D03EF4909581959F4F24
S11303D00895709561957F4F0895A1E21A2EAA1B86
S11303E0BB1BFD010DC0AA1FBB1FEE1FFF1FA217E1
S11303F0B307E407F50720F0A21BB30BE40BF50BDE
S1130400661F771F881F991F1A9469F76095709566
S1130410809590959B01AC01BD01CF010895052EF7
S113042097FB1EF400940E94260257FD07D00E94F9
S1130430ED0107FC03D04EF40C9426025095409530
S1130440309521953F4F4F4F5F4F0895909580957C
S1130450709561957F4F8F4F9F4F0895AA1BBB1BCB
S113046051E107C0AA1FBB1FA617B70710F0A61BB0
S1130470B70B881F991F5A95A9F780959095BC01D1
S10B0480CD010895F894FFCFAB
S9030000FC
